:020000040800F2
:1000000000000220B9490008752100087721000886
:10001000792100087B2100087D21000800000000F4
:100020000000000000000000000000007F21000828
:1000300081210008000000008321000885210008BC
:10004000094A0008094A0008094A0008094A000844
:10005000094A0008094A0008094A0008094A000834
:10006000094A0008094A0008094A0008094A000824
:10007000094A0008094A0008094A0008094A000814
:10008000094A0008094A0008094A0008094A000804
:10009000094A0008094A0008094A0008094A0008F4
:1000A000094A00088D210008A5210008094A000816
:1000B000094A0008094A0008094A0008094A0008D4
:1000C000094A0008094A0008094A0008094A0008C4
:1000D000094A0008094A0008094A0008094A0008B4
:1000E000094A0008094A0008094A0008094A0008A4
:1000F000094A0008094A0008094A0008094A000894
:10010000094A0008094A0008094A0008094A000883
:10011000094A0008094A0008BD210008094A0008E8
:10012000CD210008094A0008094A0008094A0008C8
:10013000094A00080000000000000000094A000809
:10014000094A0008094A0008094A0008094A000843
:10015000094A0008094A0008094A0008094A000833
:10016000094A0008094A0008094A0008094A000823
:10017000094A0008094A00080000000000000000C9
:08018000094A0008094A0008C1
:1001900010B5054C237833B9044B13B10448AFF3C1
:1001A00000800123237010BD7000002000000000BB
:1001B000E85A000808B5034B1BB103490348AFF3E5
:1001C000008008BD0000000074000020E85A00080C
:1001D00001F0FF01102A2BDB10F0070F08D010F8F8
:1001E000013B013A8B422DD010F0070F42B3F6D1FC
:1001F000F0B441EA012141EA014122F007047FF015
:1002000000070023F0E80256083C85EA010586EA6B
:10021000010685FA47F5A3FA87F586FA47F6A5FAA7
:1002200087F68EB9EED1F0BC01F0FF0102F00702B3
:1002300032B110F8013B013A83EA010313B1F8D15E
:100240000020704701387047002D06BF354603383F
:10025000073815F0010F07D1013015F4807F02BF78
:10026000013015F4C03F0130F0BC0138704700BFC9
:1002700081F0004102E000BF83F0004330B54FEA57
:1002800041044FEA430594EA050F08BF90EA020FC4
:100290001FBF54EA000C55EA020C7FEA645C7FEA57
:1002A000655C00F0E2804FEA5454D4EB5555B8BF7A
:1002B0006D420CDD2C4480EA020281EA030382EAEB
:1002C000000083EA010180EA020281EA0303362D7D
:1002D00088BF30BD11F0004F4FEA01314FF4801C50
:1002E0004CEA113102D0404261EB410113F0004F62
:1002F0004FEA03334CEA133302D0524263EB430319
:1003000094EA050F00F0A780A4F10104D5F1200EB6
:100310000DDB02FA0EFC22FA05F2801841F1000111
:1003200003FA0EF2801843FA05F359410EE0A5F1E5
:1003300020050EF1200E012A03FA0EFC28BF4CF016
:10034000020C43FA05F3C01851EBE37101F00045CC
:1003500007D54FF0000EDCF1000C7EEB00006EEBD9
:100360000101B1F5801F1BD3B1F5001F0CD3490863
:100370005FEA30004FEA3C0C04F101044FEA4452BA
:1003800012F5800F80F09A80BCF1004F08BF5FEA41
:10039000500C50F1000041EB045141EA050130BD21
:1003A0005FEA4C0C404141EB0101013C28BFB1F533
:1003B000801FE9D291F0000F04BF01460020B1FA7E
:1003C00081F308BF2033A3F10B03B3F120020CDA51
:1003D0000C3208DD02F1140CC2F10C0201FA0CF02F
:1003E00021FA02F10CE002F11402D8BFC2F1200C94
:1003F00001FA02F120FA0CFCDCBF41EA0C0190404A
:10040000E41AA2BF01EB0451294330BD6FEA040492
:100410001F3C1CDA0C340EDC04F11404C4F120027D
:1004200020FA04F001FA02F340EA030021FA04F38F
:1004300045EA030130BDC4F10C04C4F1200220FAE6
:1004400002F001FA04F340EA0300294630BD21FA24
:1004500004F0294630BD94F0000F83F4801306BFEA
:1004600081F480110134013D4EE77FEA645C18BFDE
:100470007FEA655C29D094EA050F08BF90EA020F75
:1004800005D054EA000C04BF1946104630BD91EA6D
:10049000030F1EBF0021002030BD5FEA545C05D170
:1004A0004000494128BF41F0004130BD14F58004AF
:1004B0003CBF01F5801130BD01F0004545F0FE4123
:1004C00041F470014FF0000030BD7FEA645C1ABF58
:1004D000194610467FEA655C1CBF0B46024650EA8F
:1004E000013406BF52EA033591EA030F41F40021BB
:1004F00030BD00BF90F0000F04BF0021704730B541
:100500004FF4806404F132044FF000054FF0000115
:1005100050E700BF90F0000F04BF0021704730B5D6
:100520004FF4806404F1320410F0004548BF4042AB
:100530004FF000013EE700BF42004FEAE2014FEA00
:1005400031014FEA02701FBF12F07F4393F07F4FDB
:1005500081F06051704732F07F4208BF704793F0DE
:100560007F4F04BF41F40021704730B54FF46074F1
:1005700001F0004521F000411CE700BF50EA0102F4
:1005800008BF704730B54FF000050AE050EA01029D
:1005900008BF704730B511F0004502D5404261EB0D
:1005A00041014FF4806404F132045FEA915C3FF44E
:1005B000D8AE4FF003025FEADC0C18BF03325FEAEB
:1005C000DC0C18BF033202EBDC02C2F1200300FA9C
:1005D00003FC20FA02F001FA03FE40EA0E0021FAC1
:1005E00002F11444BDE600BF70B54FF0FF0C4CF4AF
:1005F000E06C1CEA11541DBF1CEA135594EA0C0F61
:1006000095EA0C0F00F0DEF82C4481EA030621EA9B
:100610004C5123EA4C5350EA013518BF52EA0335D6
:1006200041F4801143F4801338D0A0FB02CE4FF088
:100630000005E1FB02E506F00042E0FB03E54FF0B8
:100640000006E1FB03569CF0000F18BF4EF0010EB0
:10065000A4F1FF04B6F5007F64F5407404D25FEAAC
:100660004E0E6D4146EB060642EAC62141EA55515F
:100670004FEAC52040EA5E504FEACE2EB4F1FD0CA1
:1006800088BFBCF5E06F1ED8BEF1004F08BF5FEA1F
:10069000500E50F1000041EB045170BD06F00046D1
:1006A00046EA010140EA020081EA0301B4EB5C047E
:1006B000C2BFD4EB0C0541EA045170BD41F4801176
:1006C0004FF0000E013C00F3AB8014F1360FDEBF9B
:1006D000002001F0004170BDC4F10004203C35DA77
:1006E0000C341BDC04F11404C4F1200500FA05F3FA
:1006F00020FA04F001FA05F240EA020001F000429B
:1007000021F0004110EBD37021FA04F642EB060110
:100710005EEA430E08BF20EAD37070BDC4F10C043A
:10072000C4F1200500FA04F320FA05F001FA04F2FE
:1007300040EA020001F0004110EBD37041F10001EA
:100740005EEA430E08BF20EAD37070BDC4F12005F5
:1007500000FA05F24EEA020E20FA04F301FA05F25D
:1007600043EA020321FA04F001F0004121FA04F205
:1007700020EA020000EBD3705EEA430E08BF20EAD5
:10078000D37070BD94F0000F0FD101F0004640000F
:1007900041EB010111F4801F08BF013CF7D041EA91
:1007A000060195F0000F18BF704703F00046520095
:1007B00043EB030313F4801F08BF013DF7D043EA66
:1007C0000603704794EA0C0F0CEA135518BF95EA1C
:1007D0000C0F0CD050EA410618BF52EA4306D1D1A3
:1007E00081EA030101F000414FF0000070BD50EAC2
:1007F000410606BF1046194652EA430619D094EA4C
:100800000C0F02D150EA013613D195EA0C0F05D135
:1008100052EA03361CBF104619460AD181EA030189
:1008200001F0004141F0FE4141F470014FF0000041
:1008300070BD41F0FE4141F4780170BD70B54FF0DC
:10084000FF0C4CF4E06C1CEA11541DBF1CEA13555C
:1008500094EA0C0F95EA0C0F00F0A7F8A4EB05043E
:1008600081EA030E52EA03354FEA013100F0888035
:100870004FEA03334FF0805545EA131343EA1263FE
:100880004FEA022245EA111545EA10654FEA0026B3
:100890000EF000419D4208BF964244F1FD0404F56C
:1008A000407402D25B084FEA3202B61A65EB0305C8
:1008B0005B084FEA32024FF480104FF4002CB6EB85
:1008C000020E75EB030E22BFB61A754640EA0C0005
:1008D0005B084FEA3202B6EB020E75EB030E22BF45
:1008E000B61A754640EA5C005B084FEA3202B6EB86
:1008F000020E75EB030E22BFB61A754640EA9C0045
:100900005B084FEA3202B6EB020E75EB030E22BF14
:10091000B61A754640EADC0055EA060E18D04FEAD2
:10092000051545EA16754FEA06164FEAC30343EA72
:1009300052734FEAC2025FEA1C1CC0D111F4801F3F
:100940000BD141EA00014FF000004FF0004CB6E738
:1009500011F4801F04BF01430020B4F1FD0C88BFD7
:10096000BCF5E06F3FF6AFAEB5EB030C04BFB6EBE2
:10097000020C5FEA500C50F1000041EB045170BDD5
:100980000EF0004E4EEA113114EB5C04C2BFD4EB02
:100990000C0541EA045170BD41F480114FF0000E86
:1009A000013C90E645EA060E8DE60CEA135594EA02
:1009B0000C0F08BF95EA0C0F3FF43BAF94EA0C0F05
:1009C0000AD150EA01347FF434AF95EA0C0F7FF47A
:1009D00025AF104619462CE795EA0C0F06D152EACE
:1009E00003353FF4FDAE1046194622E750EA4106B2
:1009F00018BF52EA43067FF4C5AE50EA41047FF4C3
:100A00000DAF52EA43057FF4EBAE12E74FF0FF3C27
:100A100006E000BF4FF0010C02E000BF4FF0010CF8
:100A20004DF804CD4FEA410C7FEA6C5C4FEA430C71
:100A300018BF7FEA6C5C1BD001B050EA410C0CBFC0
:100A400052EA430C91EA030F02BF90EA020F002022
:100A5000704710F1000F91EA030F58BF994208BF89
:100A600090422CBFD8176FEAE37040F00100704746
:100A70004FEA410C7FEA6C5C02D150EA013C07D19D
:100A80004FEA430C7FEA6C5CD6D152EA033CD3D0E8
:100A90005DF8040B704700BF8446104662468C46E2
:100AA0001946634600E000BF01B5FFF7B7FF002815
:100AB00048BF10F1000F01BD4DF808EDFFF7F4FF3E
:100AC0000CBF012000205DF808FB00BF4DF808EDC9
:100AD000FFF7EAFF34BF012000205DF808FB00BFEC
:100AE0004DF808EDFFF7E0FF94BF012000205DF80E
:100AF00008FB00BF4DF808EDFFF7CEFF94BF0120C3
:100B000000205DF808FB00BF4DF808EDFFF7C4FFBB
:100B100034BF012000205DF808FB00BF4FEA41020E
:100B200012F5001215D211D56FF47873B3EB62523F
:100B300012D94FEAC12343F0004343EA505311F066
:100B4000004F23FA02F018BF404270474FF00000F8
:100B5000704750EA013005D111F0004008BF6FF036
:100B6000004070474FF00000704700BF4A0011D2AC
:100B700012F5001211D20DD56FF47873B3EB6252F7
:100B80000ED44FEAC12343F0004343EA505323FA03
:100B900002F070474FF00000704750EA013002D178
:100BA0004FF0FF3070474FF0000070474FEA4102AE
:100BB000B2F1E04324BFB3F5001CDCF1FE5C0DD9BB
:100BC00001F0004C4FEAC0024CEA5070B2F1004F05
:100BD00040EB830008BF20F00100704711F0804F08
:100BE00021D113F13872BCBF01F00040704741F4CD
:100BF00080114FEA5252C2F11802C2F1200C10FAD1
:100C00000CF320FA02F018BF40F001004FEAC123B4
:100C10004FEAD32303FA0CFC40EA0C0023FA02F358
:100C20004FEA4303CCE77FEA625307D150EA01332E
:100C30001EBF4FF0FE4040F44000704701F00040FE
:100C400040F0FE4040F40000704700BF53B94AB97D
:100C5000002908BF00281CBF4FF0FF314FF0FF30C4
:100C600000F074B9ADF1080C6DE904CE00F006F89F
:100C7000DDF804E0DDE9022304B070472DE9F04718
:100C8000089D04468E46002B4DD18A42944669D970
:100C9000B2FA82F252B101FA02F3C2F1200120FA53
:100CA00001F10CFA02FC41EA030E94404FEA1C48A1
:100CB000210CBEFBF8F61FFA8CF708FB16E341EA9D
:100CC000034306FB07F199420AD91CEB030306F123
:100CD000FF3080F01F81994240F21C81023E634444
:100CE0005B1AA4B2B3FBF8F008FB103344EA0344E8
:100CF00000FB07F7A7420AD91CEB040400F1FF33FD
:100D000080F00A81A74240F207816444023840EA39
:100D10000640E41B00261DB1D4400023C5E9004372
:100D20003146BDE8F0878B4209D9002D00F0EF80F5
:100D30000026C5E9000130463146BDE8F087B3FA28
:100D400083F6002E4AD18B4202D3824200F2F98010
:100D5000841A61EB030301209E46002DE0D0C5E913
:100D6000004EDDE702B9FFDEB2FA82F2002A40F05F
:100D70009280A1EB0C014FEA1C471FFA8CFE012662
:100D8000200CB1FBF7F307FB131140EA01410EFB06
:100D900003F0884208D91CEB010103F1FF3802D2AD
:100DA000884200F2CB804346091AA4B2B1FBF7F0A7
:100DB00007FB101144EA01440EFB00FEA64508D9CA
:100DC0001CEB040400F1FF3102D2A64500F2BB8007
:100DD0000846A4EB0E0440EA03409CE7C6F1200756
:100DE000B34022FA07FC4CEA030C20FA07F401FA9C
:100DF00006F31C43F9404FEA1C4900FA06F3B1FB25
:100E0000F9F8200C1FFA8CFE09FB181140EA014189
:100E100008FB0EF0884202FA06F20BD91CEB010126
:100E200008F1FF3A80F08880884240F28580A8F17E
:100E300002086144091AA4B2B1FBF9F009FB1011D0
:100E400044EA014100FB0EFE8E4508D91CEB01016E
:100E500000F1FF346CD28E456AD90238614440EA11
:100E60000840A0FB0294A1EB0E01A142C846A64691
:100E700056D353D05DB1B3EB080261EB0E0101FA1A
:100E800007F722FA06F3F1401F43C5E90071002677
:100E90003146BDE8F087C2F12003D8400CFA02FCCD
:100EA00021FA03F3914001434FEA1C471FFA8CFEDD
:100EB000B3FBF7F007FB10360B0C43EA064300FBCD
:100EC0000EF69E4204FA02F408D91CEB030300F16B
:100ED000FF382FD29E422DD9023863449B1B89B222
:100EE000B3FBF7F607FB163341EA034106FB0EF3AB
:100EF0008B4208D91CEB010106F1FF3816D28B4258
:100F000014D9023E6144C91A46EA004638E72E4623
:100F1000284605E70646E3E61846F8E64B45A9D21B
:100F2000B9EB020864EB0C0E0138A3E74646EAE78A
:100F3000204694E74046D1E7D0467BE7023B614438
:100F400032E7304609E76444023842E7704700BFA1
:100F50002DE9F0438BB0002405940694079408947F
:100F600009940094504B1A6B42F004021A631A6BF6
:100F700002F004020092009A01941A6B42F080027F
:100F80001A631A6B02F080020192019A02941A6BA2
:100F900042F001021A631A6B02F001020292029AF5
:100FA00003941A6B42F002021A631A6B02F00202F7
:100FB0000392039A04941A6B42F008021A631B6BA3
:100FC00003F008030493049BDFF8E88022464FF403
:100FD0000C51404602F067FA344F22464FF440511C
:100FE000384602F060FA324E22464FF440613046F5
:100FF00002F059FADFF8C09022460421484602F078
:1010000052FA4FF40C530593012506950794089462
:1010100005A9404602F04EF94FF45C43059306944F
:10102000079405A9404602F045F940F604030593EC
:101030000694079405A9384602F03CF94FF4405352
:10104000059306950794089405A9384602F032F9ED
:101050004FF44063059306950794089405A930461C
:1010600002F028F94FF4805305930694079405A9DC
:10107000304602F01FF94FF4004305930223069314
:1010800007940894099505A9304602F013F9042342
:10109000059306950794089405A9484602F00AF9B5
:1010A0000BB0BDE8F08300BF0038024000040240EE
:1010B0000000024000080240000C024000B583B06E
:1010C00000210191094B1A6B42F480021A631B6BD9
:1010D00003F480030193019B0A46382002F050FC80
:1010E000382002F085FC03B05DF804FB00380240B4
:1010F00070B50D4614460D4EB0FA80F252094FF409
:101100000061304602F0CFF9B5FA85F252094FF48A
:101110008061304602F0C7F9B4FA84F252094FF404
:101120000071034802F0BFF970BD00BF000002402B
:101130000008024008B5024801F032FC08BD00BFBB
:10114000E401002000B583B01E4803F011FD1E4BE2
:10115000B3F900201D4BB3F900101D4803F082FCC9
:101160001C4BD3E90001FFF721FDFFF7E5F902462B
:101170000B46194803F076FC184BD3E90023CDE960
:101180000023174BD3E90023164803F06BFC164BE2
:10119000D3E90023154803F065FC154BD3E9002380
:1011A000144803F05FFC144BD3E90023CDE900237E
:1011B000124BD3E90023124803F054FC03B05DF84E
:1011C00004FB00BF005B0008E0010020DE010020FE
:1011D000205B0008E0050020445B0008A00500201B
:1011E000B8050020585B0008D80500208C5B00087B
:1011F00078050020A45B0008880500206005002019
:10120000B85B000808B53C21064803F0FFF93C2113
:10121000054803F0FBF90023044A5362A2F57C421F
:10122000536208BD38030020100400200000014074
:1012300008B53C21034803F04FFA3C21024803F073
:101240004BFA08BD380300201004002038B50025F3
:101250000A4B1D70FFF76EFF094802F067FE094C4C
:101260000421204603F08CF92946204603F088F932
:10127000FFF7DEFF044802F059FE38BD6A05002082
:10128000A00400205804002080030020C2F57A73D7
:1012900000FB03F301FB0231034880FB0130C91757
:1012A000C1EBA010704700BFD34D621000000000DA
:1012B0002DE9F84F2DED028B04460268754B9A42DA
:1012C0000DD02268744B9A4200F094802268734BD0
:1012D0009A4200F0EF81BDEC028BBDE8F88F704BB5
:1012E0001B8843F2833293425CD801336C4A1380EB
:1012F0006C4B1B78002B59D06B4BD3E900016B4B27
:10130000C3E900016A4BD3E900016A4BC3E900015C
:10131000002200236549D1E90001FFF7D7FB00282F
:101320004DD101220421644802F0BDF800220023BF
:101330006049D1E90001FFF7C9FB00284CD1002228
:101340004FF400515D4802F0AEF8584BD3E90089E4
:1013500000225B4B40464946FFF7D6FB18B14FF0E1
:101360000008DFF85C91514BC3E90089514BD3E988
:1013700000670022524B30463946FFF7C5FB08B1E3
:1013800000264F4F4B4BC3E900674E4B1D6840464C
:101390004946FFF7EBFB686330463946FFF7E6FB4B
:1013A000A8638EE73F4B00221A70A1E700220023BA
:1013B0003E49C1E900233F49C1E90023A8E70022D3
:1013C00004213D4802F06FF8384B18685A6802F162
:1013D0000041C3E90001A9E701224FF40051374859
:1013E00002F061F8334B18685A6802F10041C3E912
:1013F0000001AAE7344E0421304602F04DF8B0FA5D
:1014000080F56D094FF40061304602F045F810BBDD
:10141000022005442D4B1B78AB4266D02B4B1D7030
:101420002B4B1A78530005FA03F12A4803780B4432
:10143000DBB20370002D55D1002A53D003F0030214
:1014400013F00C0F1BD1012A07D0022A14D0224B13
:1014500003221A7016E00020DBE71F4B1A701F4BA7
:101460001B781BB913441D4A13700BE0012B09D1E3
:101470001B4B00221A7005E0174B1A7002E0164B46
:1014800003221A700023124A1370124A1370124A70
:1014900013702AE000100040004401400048014061
:1014A000AA0500206A0500207005002060050020C4
:1014B0007805002088050020000C0240000802404A
:1014C00000408F405804002000040240AC0500207A
:1014D000A90500206805002069050020800500207E
:1014E000E201002001329E4B1A70DFF8D4823C21C9
:1014F000404603F0F1F89B4F3C21384603F0ECF8EE
:101500009948436AA3F50043984E3380984A536A3A
:101510004FF40041CB1A974D2B80416251623C2120
:10152000404603F073F83C21384603F06FF8924BC5
:1015300093ED007BB0EE478AF0EE678AB6F90000C3
:10154000FEF7E8FF53EC182BFFF74EF8804689466C
:101550008A4BC3E900898A4ED6E90001FFF7DEFA1B
:10156000074640464946FFF7D9FA4FF4C872394654
:10157000FFF78CFEFEF7CEFF02460B46C6E90023BE
:1015800000200021FEF778FE82468B467D4BC3E9A2
:1015900000ABDFF83082D8E90023FEF76FFE064685
:1015A0000F46C8E900670022002350465946FFF75E
:1015B0001BF8804689460022002330463946FFF753
:1015C00013F802460B4640464946FEF757FE0646CC
:1015D0000F466D4BC3E9006700220023FEF74EFE65
:1015E00000226A4BFFF700F85BA3D3E90023FFF763
:1015F00025F9674BC3E90001B5F90000FEF78AFF42
:1016000053EC182BFEF7F0FF06460F46614BC3E97B
:101610000067614DD5E90001FFF780FA804630464A
:101620003946FFF77BFA4FF4C8724146FFF72EFEAA
:10163000FEF770FF02460B46C5E90023002000219B
:10164000FEF71AFE80468946544BC3E90089544D83
:10165000D5E90023FEF712FE06460F46C5E90067EE
:101660000022504B40464946FEF7BEFF8046894661
:101670000022002330463946FEF7B6FF02460B46ED
:1016800040464946FEF7FAFD06460F46464BC3E97B
:10169000006700220023FEF7F1FD00223B4BFEF71E
:1016A000A3FF2DA3D3E90023FFF7C8F83F4BC3E9FD
:1016B00000010BE63E4D4FF48051284601F0ECFE50
:1016C000B0FA80F464094FF48061284601F0E4FE2A
:1016D00070BB022004444FF48051364801F0DCFE18
:1016E00040BB04231C44E4B24FF40061304801F0D5
:1016F000D3FE08BB08231C442F4B1C704FF48041C1
:101700002B4801F0C9FEC8B14FF48041284801F0D0
:10171000C3FE00283FF4DFAD4FF40041244801F040
:10172000BBFE00287FF4D7AD244B00221A70D2E50F
:101730000020CFE70023D5E70023DCE74FF400418A
:1017400000F1804000F5023001F0A6FE0028DBD059
:101750001A4B01221A70D7E700000000009AC0401F
:10176000A90500201004002000000140DE01002037
:1017700000040040E001002090000020C805002087
:10178000C0050020B0050020D005002000408F409B
:1017900070050020E8050020E0050020B8050020C5
:1017A000A005002000002E40D8050020780500206C
:1017B000000802400000024090050020E2010020E5
:1017C0003803002098050020184B1B78082B2AD9D5
:1017D0000022164B1A700DE00133DBB2082BFBD947
:1017E00002F13001124B33F81110124B23F8121092
:1017F0000132D2B20B2A16D80023EFE70B4A127837
:101800000D4931F8130002EB420291001944084AD5
:1018100022F811000133DBB20B2BEFD9034A137806
:101820000133137070470023F6E700BFA8050020BE
:10183000B000002098000020B801002072B6FEE73A
:1018400000B585B000230093019302930393704881
:10185000704A02604FF4803242608360012202616C
:10186000027680F82030C3626B498162C360102326
:10187000C36180F83020426100F098FF002840F0FA
:10188000A580092300930123019303230293694652
:101890005F4801F00DF9002840F09A800A23009378
:1018A0000223019369465A4801F002F9002840F0EA
:1018B000918008230093032301936946544801F063
:1018C000F7F8002840F088800B230093042301934D
:1018D00069464F4801F0ECF800287FD10E230093B1
:1018E0000523019369464A4801F0E2F8002877D1C0
:1018F0000F230093062301936946454801F0D8F869
:1019000000286FD10C2300930723019369464048B8
:1019100001F0CEF8002867D10D230093082301932E
:1019200069463B4801F0C4F800285FD107230093C3
:10193000092301936946364801F0BAF8002857D1C7
:10194000002300930A2301936946314801F0B0F85F
:1019500000284FD1062300930B23019369462C489E
:1019600001F0A6F8002847D1012300930C2301932E
:101970006946274801F09CF800283FD105230093D1
:101980000D2301936946224801F092F8002837D1CF
:10199000022300930E23019369461D4801F088F845
:1019A00080BB042300930F2301936946184801F07C
:1019B0007FF848BB03230093102301936946144822
:1019C00001F076F810BB05B05DF804FBFFF736FFB9
:1019D000FFF734FFFFF732FFFFF730FFFFF72EFF6F
:1019E000FFF72CFFFFF72AFFFFF728FFFFF726FF7F
:1019F000FFF724FFFFF722FFFFF720FFFFF71EFF8F
:101A0000FFF71CFFFFF71AFFFFF718FFFFF716FF9E
:101A1000E4010020002001400100000F08B50A4841
:101A20000A4B03604FF41653436000238360C36086
:101A300003610C2242618361C36102F07FFF00B940
:101A400008BDFFF7FBFE00BFE804002000140140C2
:101A500000B583B00023009301930E480E4A026044
:101A600004224260836044F29F12C260836102F0EC
:101A70009BFB50B90023009301936946054802F08F
:101A80008DFE20B903B05DF804FBFFF7D7FEFFF72A
:101A9000D5FE00BFA00400200010004000B58BB0B0
:101AA00000230893099301930293039304930593EE
:101AB000069307931A481B4A026001224260836022
:101AC00040F2E732C2600361836102F099FBF8B92A
:101AD00000230893099308A9114802F05FFEC8B9D2
:101AE00060230193002202920392059201A90C48FF
:101AF00002F046FC80B904220DEB0201084802F016
:101B00003FFC58B9064800F053FD0BB05DF804FBEC
:101B1000FFF794FEFFF792FEFFF790FEFFF78EFEB1
:101B2000580400200008004000B58DB02422002198
:101B300003A802F08FFF0023019302931148124A79
:101B40000260436083604FF6FF72C26003614361CD
:101B500083610323039301230593099303A902F0EF
:101B60007BFB50B900230193029301A9054802F0C1
:101B700015FE20B90DB05DF804FBFFF75FFEFFF71F
:101B80005DFE00BF380300200000014000B58DB0AD
:101B90002422002103A802F05DFF00230193029399
:101BA0001048114A0260436083604FF6FF72C260C2
:101BB000036183610323039301230593099303A91D
:101BC00002F04AFB50B900230193029301A9054892
:101BD00002F0E4FD20B90DB05DF804FBFFF72EFE26
:101BE000FFF72CFE100400200004004008B509484F
:101BF000094B0360042343600023836044F29F1277
:101C0000C2600361836102F0CFFA00B908BDFFF73B
:101C100015FE00BF800300200044014008B50948BC
:101C2000094B0360042343600023836044F29F1246
:101C3000C2600361836102F0B7FA00B908BDFFF723
:101C4000FDFD00BFC80300200048014008B50E4854
:101C50000E4B03604FF48273436000238360C360C4
:101C600002220261012242614FF40072826120224D
:101C7000C2610362436283620A23C36202F01EF8F8
:101C800000B908BDFFF7DAFDE0020020003800408F
:101C900008B50B480B4B03600B4B4360002383607C
:101CA000C3604FF48042026143618361C36180235A
:101CB000036201F025FF00B908BDFFF7BFFD00BFBB
:101CC0008C02002000540040A086010000B595B0B1
:101CD0003022002108A802F0BDFE002303930493E4
:101CE0000593069307930193204A116C41F08051AC
:101CF0001164126C02F080520192019A02931C4B03
:101D00001A6842F480421A601B6803F4804302930D
:101D1000029B012308934FF4A023099302230E93FF
:101D20004FF480020F9208221092A822119212936F
:101D30000423139308A800F087FF98B90F23039397
:101D400002230493002305934FF4A05306934FF40A
:101D500080530793052103A801F0D6F920B915B0E7
:101D60005DF804FBFFF76AFDFFF768FD00380240ED
:101D70000070004008B5084B00221A701022074975
:101D8000074800F03FFD20B94FF47A7001F0A4FE3F
:101D900008BDFFF753FD00BFA8050020B8010020D3
:101DA000E4010020D0B5FFF7E5FF0024224B1C80A2
:101DB00000260027214BC3E90067214BC3E90067D8
:101DC000204802F0D5FE3C211F4802F01FFC3C21B8
:101DD0001E4802F01BFC1E4B1C701E4B1C701E4B41
:101DE0001C701E4B1C701E4B1C701E4802F0C0FE67
:101DF0001D4802F057F81D4BC3E900671C4BC3E9AF
:101E000000671C4B1C60FFF7FDF91B4802F0B0FE99
:101E10001A4E2146304602F031FB0421304602F0D2
:101E20002DFB174802F0A4FE164802F03BF8164BB3
:101E300001221A70D0BD00BFAA050020980500201D
:101E4000A0050020E05B00083803002010040020FB
:101E5000AC05002068050020A905002069050020C8
:101E600080050020F05B0008800300206005002052
:101E700088050020D8010020045C000858040020D8
:101E8000105C0008A00400206A05002010B501F0D5
:101E9000F7FD00239D4A13709D4A13709D4A1370ED
:101EA0009D4A00209D49C2E900019D4A13800AE035
:101EB0009C4A002122F813109B4A4FF4805122F8CB
:101EC00013100133DBB20B2BF2D9FFF7FFFEFFF744
:101ED0003FF8FFF7F3F8FFF7B3FCFFF79FFDFFF7BD
:101EE000B7FDFFF7DBFDFFF71FFEFFF74FFEFFF724
:101EF0007DFEFFF793FEFFF7A9FEFFF7C9FE8B48B3
:101F000002F0B0FD8A4802F033FE8A4802F030FE4B
:101F1000894800F04BFC08B1FFF790FC874802F0BD
:101F200027FE874801F0BEFF012211461046FFF749
:101F3000DFF828E0002201210846FFF7D9F8FFF773
:101F400019FF19E07F4A32F81300764A32F813106D
:101F5000814238BF014622F81310734931F813202B
:101F6000824228BF024621F813200133DBB20B2B3B
:101F7000E8D9FA2001F0B0FD644B1B780BB1234681
:101F8000F5E7FFF7D7F8704802F06CFD5F4B1B7860
:101F9000002BF8D05F4B1C780F2CF4D801A353F81A
:101FA00024F000BF351F0008E51F00083520000899
:101FB00087200008871F0008871F0008871F000868
:101FC000871F0008871F0008871F0008871F000859
:101FD000871F0008871F0008871F0008DD200008F2
:101FE000012100084E4B64221A800022574B5849A9
:101FF000C1E900235749C1E90023002200235649C3
:10200000C1E900235549C1E900235549C1E900232D
:102010005449C1E90023FFF7C5FE04E0FFF792F839
:10202000FA2001F059FD394B1B78002BF6D1FFF750
:102030000DF9A8E73A4B4FF47A721A8000224A4B06
:102040004349C1E900234349C1E900230022002399
:102050004149C1E900234149C1E900234049C1E99F
:1020600000234049C1E90023FFF79CFE04E0FFF78D
:1020700069F8FA2001F030FD244B1B78002BF6D1D3
:10208000FFF7E4F87FE7264B4FF4E1721A80002255
:10209000364B2F49C1E900232E49C1E90023002214
:1020A000334B2D49C1E900232C49C1E9002300220B
:1020B00000232B49C1E900232A49C1E90023FFF786
:1020C00071FE04E0FFF73EF8FA2001F005FD0F4B2A
:1020D0001B78002BF6D1FFF7B9F854E7FFF762FE43
:1020E00004E0FFF72FF8FA2001F0F6FC074B1B780D
:1020F000002BF6D1FFF7AAF845E7FA2001F0ECFC37
:10210000024B1B78002BF8D13DE700BFE201002015
:102110006A05002090050020900000200000384053
:10212000DC01002088010020A0010020185C0008CC
:10213000205C0008405C0008E4010020585C0008B6
:10214000C803002098000020685C000800002040C0
:1021500050050020580500203005002038050020DB
:1021600040050020480500200000444000003940A0
:1021700000002440FEE7FEE7FEE7FEE7FEE77047CB
:102180007047704708B501F095FC08BD08B50348D5
:1021900001F0E9FE024801F0E6FE08BD3803002028
:1021A0008003002008B5034801F0DDFE024801F07D
:1021B000DAFE08BD38030020C803002008B5024835
:1021C00001F0D1FE08BD00BFA004002008B5024800
:1021D00001F0D6FA08BD00BF2C02002000B583B084
:1021E000002200920D4B596C41F480415964596CA6
:1021F00001F48041009100990192196C41F08051E5
:1022000019641B6C03F080530193019B0F216FF045
:10221000030001F0B5FB03B05DF804FB0038024099
:1022200070B58AB00023059306930793089309932A
:10223000026803F1804303F590339A4201D00AB05B
:1022400070BD04460025019503F58C335A6C42F4A9
:1022500080725A645A6C02F480720192019A02955B
:102260001A6B42F004021A631A6B02F00402029223
:10227000029A03951A6B42F001021A631A6B02F07C
:1022800001020392039A04951A6B42F002021A6348
:102290001B6B03F002030493049B3F230593032667
:1022A000069605A9174801F005F8FF230593069641
:1022B000079505A9144800F0FDFF059606960795B9
:1022C00005A9124800F0F6FF1148124B0360456063
:1022D0008560C5604FF4806303614FF40063436120
:1022E0004FF4005383614FF48073C361056245620C
:1022F00001F060F918B9064BA3639C639FE7FFF7F1
:102300009DFAF8E700080240000002400004024085
:102310002C0200201064024030B589B000230393E2
:1023200004930593069307930268154B9A4201D0D4
:1023300009B030BD00250195124C236B43F0020318
:102340002363236B03F002030193019B4FF440735B
:102350000393122304930123059303230693042379
:10236000079303A9084800F0A5FF0295236C43F4E6
:1023700000132364236C03F400130293029BD7E73A
:1023800000540040003802400004024000B589B00B
:102390000023039304930593069307930268154B58
:1023A0009A4202D009B05DF804FB0021019103F5C7
:1023B00000331A6C42F480421A641A6C02F48042B0
:1023C0000192019A02911A6B42F002021A631B6B8E
:1023D00003F002030293029B4FF44443039302234E
:1023E0000493032306930523079303A9024800F0EF
:1023F00061FFD7E7003800400004024010B58AB002
:1024000000230593069307930893099303682D4AC5
:10241000934204D02C4A934233D00AB010BD00241A
:1024200001942A4B5A6C42F001025A645A6C02F031
:1024300001020192019A02941A6B42F001021A639E
:102440001B6B03F001030293029B4FF4407305934F
:10245000022306930123099305A91D4800F02AFFD2
:1024600022462146192001F08BFA192001F0C0FA0A
:10247000224621461A2001F083FA1A2001F0B8FA08
:10248000CBE700210391114B1A6C42F002021A644F
:102490001A6C02F002020392039A04911A6B42F042
:1024A00002021A631B6B03F002030493049B3023A4
:1024B000059302230693099305A9064800F0FAFE46
:1024C000ABE700BF000001400004004000380240BC
:1024D00000000240000402400268094B9A4200D00A
:1024E000704782B000230193064B1A6C42F004023D
:1024F0001A641B6C03F004030193019B02B0704744
:10250000000800400038024000B585B00368244A46
:10251000934208D0234A934219D0234A93422AD0A7
:1025200005B05DF804FB00210191204B1A6C42F0CC
:1025300010021A641B6C03F010030193019B0A46FE
:10254000362001F01DFA362001F052FAE8E70021AA
:102550000291164B5A6C42F400325A645B6C03F4DD
:1025600000330293029B0A46192001F009FA192050
:1025700001F03EFAD4E7002103910C4B5A6C42F46F
:1025800080225A645B6C03F480230393039B0A4606
:102590001A2001F0F5F91A2001F02AFAC0E700BF6D
:1025A0000010004000440140004801400038024053
:1025B00000B587B00023019302930393049305931E
:1025C00002680E4B9A4202D007B05DF804FB00236C
:1025D00000930B4B1A6B42F002021A631B6B03F061
:1025E00002030093009BC0230193022302930593EF
:1025F00001A9044800F05EFEE6E700BF00080040C5
:10260000003802400004024000B589B00023039363
:1026100004930593069307930268154B9A4202D0E0
:1026200009B05DF804FB0021019103F592335A6C67
:1026300042F020025A645A6C02F020020192019A80
:1026400002911A6B42F004021A631B6B03F004033D
:102650000293029BC0230393022304930323069354
:102660000823079303A9034800F024FED8E700BF1E
:1026700000140140000802404A4B5A6822F44032DC
:102680005A605A6841680A435A600268536823F4E2
:102690008073536002685368016943EA0123536001
:1026A0000268536823F0407353600268536881687E
:1026B0000B4353600268936823F4006393600268DD
:1026C0009368C1680B439360826A374B9A4257D034
:1026D0000268936823F07063936002689368816A6C
:1026E0000B4393600268936823F040539360026841
:1026F0009368C16A0B4393600268936823F00203F6
:10270000936002689368017E43EA4103936090F806
:102710002030002B3FD00268536843F400635360BD
:102720000268536823F46043536001684B68426A4F
:10273000013A43EA42334B600268D36A23F47003E0
:10274000D3620168CB6AC269013A43EA0253CB62A1
:102750000268936823F4007393600268936890F8AA
:10276000301043EA412393600268936823F4806346
:10277000936002689368416943EA812393607047DC
:102780000268936823F0706393600268936823F093
:1027900040539360B0E70268536823F400635360CA
:1027A000CAE700BF002301400100000F38B310B595
:1027B0000446036C43B1236C13F0100F0BD00120BF
:1027C000002384F83C3010BDFFF72AFD002363642A
:1027D00084F83C30EFE7236C23F4885323F00203A2
:1027E00043F0020323642046FFF746FF00206064A5
:1027F000236C23F0030343F001032364E0E701208B
:102800007047000010B582B013460022019290F884
:102810003C20012A00F0AE800446012280F83C20D2
:102820000268906810F0010F13D1906840F0010029
:102830009060534A1068534AA2FB0020800C00EBC2
:102840004000019002E001980138019001980028B1
:10285000F9D12268906810F4807F03D0906820F44A
:10286000807090602268906810F0010F77D0206C23
:1028700020F4E06020F0010040F480702064526891
:1028800012F4806F05D0226C22F4405242F4805240
:102890002264226C12F4805F36D0626C22F0060251
:1028A0006264002284F83C20A26B3748D063A26B9C
:1028B00036481064A26B3648D06422686FF022005C
:1028C00010602068426842F080624260206882683E
:1028D00042F48072826020680A4600F14C01A06BCD
:1028E00000F0CEFE2B4B5B6813F01F0F27D123683F
:1028F000294A934211D002F58072934207D0274AA9
:10290000934214D0002033E000226264C9E702F54C
:102910000072526812F01F0FF1D19A6812F0405FF6
:102920002AD19A6842F080429A60002020E002F5A5
:102930008072526812F0100FEFD0002018E0236868
:10294000154A934201D0002012E09A6812F0405FCD
:1029500014D19A6842F080429A60002008E0236C0B
:1029600043F010032364636C43F0010363640020AD
:1029700002B010BD0220FBE70020F9E70020F7E7D6
:102980000800002083DE1B433D2A00081B2A0008A4
:10299000272A0008002301400020014000220140B6
:1029A00090F83C30012B35D010B50446012380F857
:1029B0003C300268936823F00103936003689A68CF
:1029C00012F0010F21D19A6822F480729A60806B14
:1029D00090F83530DBB2022B0ED00020226853680D
:1029E00023F080635360236C23F4885323F00103A6
:1029F00043F00103236409E000F077FE0028EDD0E6
:102A0000236C43F040032364E8E70020002384F8AC
:102A10003C3010BD02207047704708B5806BFFF74F
:102A2000FBFF08BD704708B5806B40230364436C0F
:102A300043F004034364FFF7F5FF08BD08B5034600
:102A4000806B026C12F0500F25D1036C43F40073BD
:102A5000036403689A6812F0405F19D1027EBAB924
:102A6000DA6A12F4700F03D09A6812F4806F0FD1F3
:102A70005A6822F020025A60036C23F480730364C6
:102A8000036C13F4805F03D1036C43F00103036410
:102A9000FEF79AFE08BD026C12F0100F04D1826B93
:102AA000D26C18469047F5E7FFF7BCFFF2E700004D
:102AB00030B482B00023019390F83C30012B00F039
:102AC000BB80012380F83C300B68092B41D9046896
:102AD000E2689BB203EB43031E3B4FF0070C0CFA7A
:102AE00003F322EA0303E3600468E2680B8803EB64
:102AF00043031E3B8D6805FA03F31343E3604B6801
:102B0000062B3DD80468626B03EB8303053B4FF053
:102B10001F0C0CFA03F322EA030363630468626B7D
:102B20004B6803EB8303053BB1F800C00CFA03F3D9
:102B3000134363630268414B9A4251D002683F4B92
:102B40009A4256D0002380F83C30184602B030BC80
:102B50007047046822699BB203EB43034FF0070CF4
:102B60000CFA03F322EA03032361046822690B8849
:102B700003EB43038D6805FA03F313432361BEE7B8
:102B80000C2B16D805682A6B03EB8303233B1F2409
:102B900004FA03F322EA03032B6305682A6B4B68EC
:102BA00003EB8303233B0C8804FA03F313432B63E7
:102BB000C0E70568EA6A03EB8303413B1F2404FA7C
:102BC00003F322EA0303EB620568EA6A4B6803EB4E
:102BD0008303413B0C8804FA03F31343EB62A9E738
:102BE0000B68122BAAD1164A536843F48003536032
:102BF000A4E70B68103B012BA4D8114A536843F497
:102C0000000353600B68102B9CD10E4B1B6802F124
:102C1000467202F52E3202F28332A2FB03239B0C92
:102C200003EB83035B00019302E0019B013B0193F3
:102C3000019B002BF9D185E7022087E700200140A6
:102C40000023014008000020002800F0E08170B55A
:102C500082B00446036813F0010F3BD09F4B9B6882
:102C600003F00C03042B2CD09C4B9B6803F00C034B
:102C7000082B21D06368B3F5803F4FD0B3F5A02F68
:102C800052D0964B1A6822F480321A601A6822F4E5
:102C900080221A606368002B50D000F017FF0546B1
:102CA0008E4B1B6813F4003F14D100F00FFF401B44
:102CB0006428F5D90320B1E1884B5B6813F4800FD9
:102CC000D8D0864B1B6813F4003F03D06368002BF9
:102CD00000F09F81236813F0020F54D07F4B9B6854
:102CE00013F00C0F3ED07D4B9B6803F00C03082BB8
:102CF00033D0E368002B68D0794B01221A6000F0D2
:102D0000E5FE0546754B1B6813F0020F54D100F029
:102D1000DDFE401B0228F5D903207FE16F4A1368CE
:102D200043F480331360B5E76C4B1A6842F4802299
:102D30001A601A6842F480321A60ABE700F0C6FEEF
:102D40000546664B1B6813F4003FC3D000F0BEFE7F
:102D5000401B6428F5D9032060E1604B5B6813F4E5
:102D6000800FC6D15D4B1B6813F0020F03D0E368E0
:102D7000012B40F05081594A136823F0F803216970
:102D800043EAC1031360236813F0080F42D063695C
:102D90006BB3534B0122C3F8802E00F097FE05461B
:102DA0004E4B5B6F13F0020F34D100F08FFE401BCF
:102DB0000228F5D9032031E1484A136823F0F803CB
:102DC000216943EAC1031360DDE7454B00221A6025
:102DD00000F07CFE0546414B1B6813F0020FD2D079
:102DE00000F074FE401B0228F5D9032016E13C4B8D
:102DF0000022C3F8802E00F069FE0546374B5B6F5A
:102E000013F0020F06D000F061FE401B0228F5D936
:102E1000032003E1236813F0040F77D02F4B1B6CC2
:102E200013F0805F33D1002301932C4B1A6C42F0D6
:102E300080521A641B6C03F080530193019B01259F
:102E4000284B1B6813F4807F23D0A368012B34D058
:102E5000052B38D0214B1A6F22F001021A671A6F26
:102E600022F004021A67A368002B3DD000F02EFE6A
:102E700006461A4B1B6F13F0020F46D100F026FED8
:102E8000801B41F288339842F3D90320C6E0002525
:102E9000D6E7144A136843F48073136000F016FEFB
:102EA0000646104B1B6813F4807FCED100F00EFE57
:102EB000801B0228F5D90320B0E0084A136F43F0C5
:102EC00001031367CFE7054B1A6F42F004021A673C
:102ED0001A6F42F001021A67C5E700BF00380240CE
:102EE000000047420070004000F0F0FD0646524BE3
:102EF0001B6F13F0020F08D000F0E8FD801B41F2B9
:102F000088339842F3D9032088E0EDB9A369002BF8
:102F100000F08380484A926802F00C02082A51D0DF
:102F2000022B17D0454B00221A6600F0CFFD044655
:102F3000414B1B6813F0007F42D000F0C7FD001B1F
:102F40000228F5D9032069E03B4A136C23F0805333
:102F50001364DBE7394B00221A6600F0B7FD054623
:102F6000354B1B6813F0007F06D000F0AFFD401B0F
:102F70000228F5D9032051E0E369226A1343626A0B
:102F800043EA8213A26A5208013A43EA0243E26A20
:102F900043EA0263284A5360284B01221A6600F074
:102FA00095FD0446244B1B6813F0007F06D100F00A
:102FB0008DFD001B0228F5D903202FE000202DE015
:102FC00000202BE0012B2BD01B4B5B6803F480010E
:102FD000E269914226D103F03F02216A8A4223D15D
:102FE000616A47F6C0721A40B2EB811F1ED103F42A
:102FF0004031A26A5208013AB1EB024F18D103F0F6
:103000007063E26AB3EB026F14D1002006E0012086
:103010007047012002E0012000E0002002B070BDF6
:103020000120FBE70120F9E70120F7E70120F5E7A0
:103030000120F3E70120F1E7003802400000474299
:1030400008B52F4B9B6803F00C03082B01D02D48CB
:1030500008BD2B4B5A6802F03F025B6813F4800FE7
:103060002AD0274B5968C1F3881C4FEA4C11B1EBA9
:103070000C006EEB0E0E4FEA8E1343EA9063810153
:10308000091A63EB0E03DB0043EA5173C90011EB2D
:103090000C0C43F10003990200234FEA8C2041EA13
:1030A0009C51FDF7D3FD164B5B68C3F3014301331D
:1030B0005B00B0FBF3F0CBE7114B5968C1F3881C00
:1030C0004FEA4C11B1EB0C006EEB0E0E4FEA8E1373
:1030D00043EA90638101091A63EB0E03DB0043EAC4
:1030E0005173C90011EB0C0C43F10003990200234A
:1030F0004FEA8C2041EA9C51FDF7A8FDD3E700BFC1
:10310000003802400024F400002800F09B8070B5D5
:103110000D4604464F4B1B6803F007038B4208D251
:10312000CBB24C4A1370136803F007038B4240F094
:103130008B80236813F0020F17D013F0040F04D014
:10314000454A936843F4E0539360236813F0080FF3
:1031500004D0414A936843F4604393603E4A9368C5
:1031600023F0F003A1680B439360236813F0010F71
:1031700032D06368012B21D09A1E012A25D9364A04
:10318000126812F0020F61D033498A6822F00302FC
:1031900013438B6000F09AFC06462F4B9B6803F0AC
:1031A0000C036268B3EB820F16D000F08FFC801B1B
:1031B00041F288339842F0D9032042E0264A12684F
:1031C00012F4003FE0D101203BE0234A126812F0E4
:1031D000007FD9D1012034E01E4B1B6803F00703A8
:1031E000AB4207D9EAB21B4B1A701B6803F0070306
:1031F000AB422DD1236813F0040F06D0164A936812
:1032000023F4E053E1680B439360236813F0080F45
:1032100007D0114A936823F46043216943EAC1034C
:103220009360FFF70DFF0C4B9B68C3F303130B4A2E
:10323000D35CD8400A4B18600A4B186800F0FAFBC0
:10324000002070BD012070470120FAE70120F8E757
:103250000120F6E7003C024000380240845C000890
:103260000800002004000020014B1868704700BFD0
:103270000800002008B5FFF7F7FF044B9B68C3F375
:103280008223034AD35CD84008BD00BF0038024007
:10329000945C000808B5FFF7E7FF044B9B68C3F395
:1032A0004233034AD35CD84008BD00BF0038024017
:1032B000945C000800230F2B00F2E48070B582B00C
:1032C00060E085685E000324B44025EA0405CC680C
:1032D000B4402C438460456825EA02054C68C4F379
:1032E00000129A402A4342605AE0DC08083450F841
:1032F000246003F0070295000F22AA4026EA020E7E
:103300000A69AA4042EA0E0240F824205CE0072243
:1033100000E0002202FA0EF22A4302345A4D45F828
:1033200024205A4A94686FEA0C0224EA0C054E687D
:1033300016F4801F01D04CEA0405544CA560E468E3
:1033400002EA04054E6816F4001F01D04CEA040599
:103350004E4CE560646802EA04054E6816F4003FCE
:1033600001D04CEA0405494C6560246822404D6850
:1033700015F4803F01D04CEA0402444C2260013332
:103380000F2B7DD801229A400C6804EA020C32EA25
:103390000404F4D14C6804F00304013C012C90D9DE
:1033A0004A6802F00302032A09D0C4685D000322C0
:1033B000AA4024EA02048A68AA402243C2604A68FA
:1033C00002F00302022A90D004684FEA430E03225F
:1033D00002FA0EF224EA02044A6802F0030202FA38
:1033E0000EF2224302604A6812F4403FC7D0002226
:1033F0000192274A546C44F480445464526C02F4A1
:1034000080420192019A9C08A51C1F4A52F825503F
:1034100003F003024FEA820E0F2202FA0EF225EAAF
:1034200002051C4A90423FF474AF02F5806290425C
:103430001AD002F58062904218D002F58062904264
:1034400016D002F58062904214D002F5806290425C
:1034500012D002F58062904210D002F58062904254
:103460003FF455AF082255E7012253E7022251E706
:1034700003224FE704224DE705224BE7062249E7E6
:1034800002B070BD704700BF00380140003C0140F1
:1034900000380240000002400369194201D00120B7
:1034A0007047002070470AB181617047090481614B
:1034B000704730B405682C6824F480242C600468BC
:1034C00063608368402B05D0036899600368DA6005
:1034D00030BC704703689A600368D960F8E7000061
:1034E00010B40368D9B210390C4AA2FB0142120988
:1034F0000B4CA25CC2655F2909D923F47F7323F0CA
:10350000030304338365806D5DF8044B704723F437
:103510007F7323F003038365F5E700BFABAAAAAA74
:103520007C5C0008836A826992B9012B0AD0022B65
:1035300002D00BB100207047C36A13F0807F28D1FE
:1035400000207047C36AB3F1C07F24D000207047C9
:10355000B2F5005F09D0022B25D9032B25D1C36A10
:1035600013F0807F23D100207047032B03D8DFE8BE
:1035700003F01404140A00207047C36A13F0807F1C
:103580000DD100207047C36AB3F1C07F09D000207D
:1035900070470120704701207047012070470120CB
:1035A00070470120704701207047002070470120BC
:1035B0007047000070B5044600F088FA002C5BD01C
:1035C0000546022384F83530002384F8343022681D
:1035D000136823F00103136023681A6812F0010FC7
:1035E0000AD000F073FA431B052BF5D9202363653D
:1035F000032084F8350070BD1A68204810406168C7
:10360000A2680A43E1680A4321690A4361690A43DF
:10361000A1690A43E1690A43216A0A430243616AD4
:1036200004291ED01A602668756925F00705636AAB
:103630001D43042B07D1A36A1D43E36A1BB1204637
:10364000FFF770FF90B975612046FFF749FFE26D03
:103650003F239340836000206065012384F8353068
:10366000C9E7E16A206B01430A43DBE74023636556
:10367000012084F83500BEE70120BCE73F8010F050
:1036800038B50446856D90F8340001282BD0012010
:1036900084F8340094F83500C0B2012804D0002327
:1036A00084F83430022038BD022084F83500002030
:1036B00060652046FFF7FDFEE26D3F239340AB605F
:1036C0002268136843F016031360236C23B1226849
:1036D000136843F0080313602268136843F0010382
:1036E00013600020DFE70220DDE770B50446866D39
:1036F00000F0ECF994F83530DBB2022B06D08023D1
:103700006365002384F83430012070BD05462268CB
:10371000136823F0160313602268536923F08003B3
:103720005361236CE3B12268136823F0080313602C
:103730002268136823F00103136023681B6813F0E9
:10374000010F11D000F0C2F9431B052BF5D920233E
:103750006365032084F83500002384F83430D4E70F
:10376000A36C002BDFD1E3E7E26D3F239340B3600E
:10377000012384F83530002084F83400C5E70000C8
:10378000F0B583B0044600230193724B1D68724B61
:10379000A3FB0535AD0A876D3E68C26D08239340D3
:1037A000334210D003681A6812F0040F0BD01A6865
:1037B00022F004021A60C26D08239340BB60436D7F
:1037C00043F001034365E26D01239340334209D086
:1037D0002268526912F0800F04D0BB60636D43F021
:1037E00002036365E26D04239340334209D02268EB
:1037F000126812F0020F04D0BB60636D43F0040343
:103800006365E26D10239340334224D0226812682E
:1038100012F0080F1FD0BB6023681A6812F4802FC3
:103820000DD01B6813F4002F04D1236C9BB12046EC
:10383000984710E0A36C73B1204698470BE01A68D4
:1038400012F4807F03D11A6822F008021A60236CF8
:103850000BB120469847E26D20239340334255D068
:103860002268126812F0100F50D0BB6094F8353007
:10387000DBB2052B0ED023681A6812F4802F33D0E8
:103880001B6813F4002F2AD1636C002B3ED0204616
:1038900098473BE02268136823F016031360226800
:1038A000536923F080035361236CA3B1226813682A
:1038B00023F008031360E26D3F239340BB600123B4
:1038C00084F83530002384F83430236D002B3FD04A
:1038D000204698473CE0A36C002BE7D1EBE7E36B75
:1038E000A3B12046984711E01A6812F4807F09D1ED
:1038F0001A6822F010021A60012384F83530002380
:1039000084F83430E36B0BB120469847636DFBB10C
:10391000636D13F0010F17D0052384F8353022684A
:10392000136823F001031360019B01330193AB4241
:1039300004D823681B6813F0010FF5D1012384F824
:103940003530002384F83430E36C0BB120469847BF
:1039500003B0F0BD08000020B5814E1B074AD368B4
:1039600023F4E0631B041B0C000200F4E06003433B
:1039700043F0BF6343F40033D360704700ED00E0D1
:1039800000B5194BDB68C3F30223C3F1070CBCF18C
:10399000040F28BF4FF0040C03F1040EBEF1060F14
:1039A00018D9033B4FF0FF3E0EFA0CFC21EA0C0144
:1039B00099400EFA03F322EA0303194300280BDBB4
:1039C0000901C9B200F1604000F5614080F80013C0
:1039D0005DF804FB0023E5E700F00F000901C9B220
:1039E000024B1954F4E700BF00ED00E014ED00E0D5
:1039F000002807DB00F01F02400901239340024A20
:103A000042F82030704700BF00E100E00138B0F11B
:103A1000807F0BD24FF0E0235861054AF02182F8F5
:103A200023100020986107221A6170470120704717
:103A300000ED00E010B504460E4B18784FF47A7391
:103A4000B3FBF0F30C4A1068B0FBF3F0FFF7DEFFB6
:103A500068B90F2C01D901200AE0002221464FF05D
:103A6000FF30FFF78DFF054B1C60002000E00120B8
:103A700010BD00BF0000002008000020040000204E
:103A800008B50B4B1A6842F400721A601A6842F4C7
:103A900080621A601A6842F480721A600320FFF78D
:103AA0005DFF0020FFF7C6FFFEF798FB002008BD72
:103AB000003C0240034A1168034B1B780B4413601F
:103AC000704700BFF005002000000020014B18687F
:103AD000704700BFF005002038B50446FFF7F6FF39
:103AE0000546B4F1FF3F02D0044B1B781C44FFF79E
:103AF000EDFF401BA042FAD338BD00BF00000020FC
:103B0000002800F0CC8070B5044690F83D30002BC2
:103B100077D0242384F83D302268136823F0010312
:103B200013602268136843F400431360226813682B
:103B300023F400431360FFF79DFB62685A4B9A42DF
:103B400064D85A4B98428CBF00230123002B40F0CD
:103B5000A8805749A1FB00318B0C25686A6822F0C8
:103B60003F0242EA91426A6021680A6A22F03F02FB
:103B700066684D4DAE424FD8013313430B62216846
:103B8000CA6922F44F4222F0FF026668464B9E4209
:103B90004CD8431E7600B3FBF6F3013340F6FC70BD
:103BA000034278D0C3F30B031343CB6121680B6846
:103BB00023F0C003E269206A024313430B602168CB
:103BC0008B6823F4034323F0FF032269E068024378
:103BD00013438B602168CB6823F0FF036269A069FF
:103BE00002431343CB602268136843F00103136060
:103BF00000202064202384F83D30206384F83E00B8
:103C000070BD80F83C30FEF787FB82E7294B984275
:103C10008CBF0023012399E74FF4967505FB03F34E
:103C2000254DA5FB03539B090133A6E7A368BBB948
:103C3000451E06EB460CB5FBFCF50135C5F30B053F
:103C4000B5FA85F56D0945BBC3B9013806EB4603E6
:103C5000B0FBF3F30133C3F30B0343F40043A3E7D7
:103C6000451E06EB860C0CEB8C0CB5FBFCF5013508
:103C7000C5F30B05B5FA85F56D09E4E7013806EBE8
:103C8000860303EB8303B0FBF3F30133C3F30B03AE
:103C900043F4404388E7042386E7012384E70120B7
:103CA00070470120ACE700BFA08601007F841E00A2
:103CB00083DE1B43FF083D00D34D621000285AD01D
:103CC00010B50446436A33B94368B3F5827F05D023
:103CD0000023C36102E00023036143610023A36268
:103CE00094F85130002B40D0022384F851302268E0
:103CF000136823F040031360636803F48273A268BF
:103D000002F404421343E26802F40062134322699E
:103D100002F002021343626902F001021343A26936
:103D200002F400721343E26902F038021343226A7C
:103D300002F080021343A26A02F400522168134386
:103D40000B60638B03F00403626A02F010022168C7
:103D500013434B602268D36923F40063D3610020CE
:103D60006065012384F8513010BD84F8503020463E
:103D7000FEF70CFBB8E701207047000030B4036A7F
:103D800023F001030362036A4268846924F0730428
:103D90000D682C4323F0020C8B6843EA0C03104D92
:103DA000A84203D005F58065A84205D123F0080399
:103DB000CD682B4323F00403094DA84203D005F539
:103DC0008065A84205D122F440724D692A438D696D
:103DD0002A43426084614A684263036230BC704790
:103DE0000000014030B4036A23F480730362036A65
:103DF0004268C46924F0730C0C6844EA0C0523F48F
:103E000000738C6843EA0423114CA04203D004F5EC
:103E10008064A04206D123F40063CC6843EA042303
:103E200023F480630A4CA04203D004F58064A042CE
:103E300007D122F440524C6942EA04128C6942EAEA
:103E400004124260C5614A68C263036230BC7047B5
:103E50000000014030B4036A23F480530362036A14
:103E60004468C26922F4E6420D6842EA052223F45E
:103E700000538D6843EA0533094DA84203D005F588
:103E80008065A84204D124F480444D6944EA851435
:103E90004460C2614A680264036230BC704700BF7C
:103EA0000000014090F83D30DBB2012B37D10223F6
:103EB00080F83D300268D36843F00103D3600368A3
:103EC000194A934220D0B3F1804F1DD0A2F57C4215
:103ED000934219D002F58062934215D002F58062B8
:103EE000934211D002F5784293420DD002F5705200
:103EF000934209D0A2F59432934205D01A6842F059
:103F000001021A60002070479A6802F00702062A30
:103F100007D01A6842F001021A60002070470120A1
:103F200070470020704700BF000001400268D3685E
:103F300023F00103D3600368196A41F211121142A0
:103F400008D1196A40F24442114203D11A6822F0A2
:103F500001021A60012380F83D300020704770474D
:103F600070477047704710B5044603681A6912F02D
:103F7000020F11D0DA6812F0020F0DD06FF00202BA
:103F80001A610123037703689B6913F0030F70D054
:103F9000FFF7E6FF0023237723681A6912F0040F66
:103FA00012D0DA6812F0040F0ED06FF004021A611A
:103FB0000223237723689B6913F4407F5FD0204658
:103FC000FFF7CEFF0023237723681A6912F0080F4A
:103FD00012D0DA6812F0080F0ED06FF008021A61E2
:103FE000042323772368DB6913F0030F4ED02046A8
:103FF000FFF7B6FF0023237723681A6912F0100F2A
:1040000012D0DA6812F0100F0ED06FF010021A61A1
:10401000082323772368DB6913F4407F3DD02046D3
:10402000FFF79EFF0023237723681A6912F0010F20
:1040300003D0DA6812F0010F36D123681A6912F042
:10404000800F03D0DA6812F0800F34D123681A6928
:1040500012F0400F03D0DA6812F0400F32D123681B
:104060001A6912F0200F03D0DA6812F0200F30D155
:1040700010BDFFF774FF2046FFF773FF8AE7204665
:10408000FFF76DFF2046FFF76CFF9BE72046FFF729
:1040900066FF2046FFF765FFACE72046FFF75FFFAE
:1040A0002046FFF75EFFBDE76FF001021A61204670
:1040B000FDF7FEF8C1E76FF080021A61204600F0BC
:1040C000B4FBC3E76FF040021A612046FFF74AFFD6
:1040D000C5E76FF020021A61204600F0A5FBC7E794
:1040E0000368304A904212D0B0F1804F0FD0A2F551
:1040F0007C4290420BD002F58062904207D002F5DC
:104100008062904203D002F57842904203D123F0BE
:1041100070034A681343234A90422AD0B0F1804F7B
:1041200027D0A2F57C42904223D002F580629042D3
:104130001FD002F5806290421BD002F57842904277
:1041400017D002F57052904213D002F5806290426F
:104150000FD002F5806290420BD0A2F598329042C7
:1041600007D002F58062904203D002F5806290424F
:1041700003D123F44073CA68134323F080034A69D0
:10418000134303608B68C3620B688362054B9842DC
:1041900003D003F58063984201D10B6903630123C7
:1041A000436170470000014040B310B5044690F8E9
:1041B0003D30F3B1022384F83D30214651F8040B21
:1041C000FFF78EFF012384F8463084F83E3084F8F0
:1041D0003F3084F8403084F8413084F8423084F82D
:1041E000433084F8443084F8453084F83D30002072
:1041F00010BD80F83C30FEF787F9DBE701207047FF
:1042000040B310B5044690F83D30F3B1022384F872
:104210003D30214651F8040BFFF762FF012384F87B
:10422000463084F83E3084F83F3084F8403084F8DB
:10423000413084F8423084F8433084F8443084F8C4
:10424000453084F83D30002010BD80F83C30FEF74A
:1042500043F9DBE701207047002856D0F8B50D463A
:10426000044690F83D30002B4AD0022384F83D30BC
:104270002268936823F4804323F007039360214668
:1042800051F8040BFFF72CFF21688A688B690E6ACE
:104290002868104323F4407C2CF0030CAA68AB6917
:1042A00042EA032343EA0C0323F47C4323F0FC0398
:1042B000EA69EF6847EA022C4CEA030C2A6A130306
:1042C0002A6943EA021343EA0C0326F0AA066A6845
:1042D0006D6942EA05123243886021688B61236868
:1042E0001A62012384F8463084F83E3084F83F3067
:1042F00084F8423084F8433084F83D300020F8BD23
:1043000080F83C30FEF77AF8AFE7012070470000F4
:1043100030B4036A23F010030362036A44688269BD
:1043200022F4E6420D6842EA052223F020038D685C
:1043300043EA0513114DA84203D005F58065A84254
:1043400006D123F08003CD6843EA051323F0400330
:104350000A4DA84203D005F58065A84207D124F490
:1043600040644D6944EA85048D6944EA85044460EB
:1043700082614A688263036230BC7047000001407A
:1043800038B590F83C30012B66D004460D46012329
:1043900080F83C300C2A5AD8DFE802F00759595906
:1043A0001B5959593059595944000068FFF7E6FC28
:1043B0002268936943F0080393612268936923F0AC
:1043C000040393612268936929690B439361002078
:1043D0003EE00068FFF79CFF2268936943F40063A6
:1043E00093612268936923F48063936122689369DF
:1043F000296943EA01239361002029E00068FFF75F
:10440000F1FC2268D36943F00803D3612268D369C1
:1044100023F00403D3612268D36929690B43D36174
:10442000002015E00068FFF715FD2268D36943F40A
:104430000063D3612268D36923F48063D361226867
:10444000D369296943EA0123D361002000E00120F8
:10445000002384F83C3038BD0220FCE701F01F0146
:10446000012303FA01FC036A23EA0C030362036AD3
:1044700002FA01F10B4303627047000010B50446D5
:104480000846002942D194F83E30DBB2013B18BF08
:104490000123002B6ED1002851D1022384F83E3035
:1044A000012201462068FFF7D9FF2368334A93426F
:1044B00003D002F58062934203D15A6C42F4004269
:1044C0005A6423682D4A934249D0B3F1804F46D0B5
:1044D000A2F57C42934242D002F5806293423ED0E4
:1044E00002F5806293423AD002F57842934236D088
:1044F00002F57052934232D0A2F5943293422ED0FC
:104500001A6842F001021A60002032E0042908D043
:1045100008290DD094F84130DBB2013B18BF0123CC
:10452000B7E794F83F30DBB2013B18BF0123B0E797
:1045300094F84030DBB2013B18BF0123A9E70428FF
:1045400005D0082807D0022384F84130A8E70223C9
:1045500084F83F30A4E7022384F84030A0E79A684B
:1045600002F00702062A07D01A6842F001021A6018
:10457000002010BD0120FCE70020FAE70000014008
:1045800038B504460D4600220068FFF767FF236830
:104590001D4A934218D002F58062934214D02368DA
:1045A000196A41F21112114208D1196A40F24442CB
:1045B000114203D11A6822F001021A609DB9012349
:1045C00084F83E30002038BD196A41F211121142C0
:1045D000E5D1196A40F244421142E0D15A6C22F40A
:1045E00000425A64DBE7042D05D0082D07D00123D3
:1045F00084F84130E6E7012384F83F30E2E7012305
:1046000084F84030DEE700BF0000014038B50446C2
:1046100090F83E00C0B294F83F3094F84220D2B2F5
:1046200094F843C00D46B1B9012849D1012A48D1B7
:10463000022384F83E3084F842307DB3042D39D013
:10464000012200212068FFF709FF012204212068D0
:10465000FFF704FF27E0DBB25FFA8CFC042912D0DD
:10466000012833D1012B2CD1012A31D1BCF1010F0A
:1046700030D1022384F83E3084F83F3084F8423051
:1046800084F84330D9E7012B1CD1BCF1010F1BD1B9
:10469000022384F83F3084F84330CEE70122002122
:1046A0002068FFF7DBFE2268136843F00103136004
:1046B000002006E0012204212068FFF7CFFEF2E788
:1046C000012038BD0120FCE71846FAE70120F8E791
:1046D0001846F6E71046F4E738B504460D4661B1D2
:1046E00004292BD0002211460068FFF7B7FE0022F4
:1046F00004212068FFF7B2FE04E0002211460068A2
:10470000FFF7ACFE2368196A41F21112114208D179
:10471000196A40F24442114203D11A6822F00102A0
:104720001A608DB1042D0FD0012384F83E3084F837
:104730003F3084F8423084F843300DE000220421F9
:104740000068FFF78BFEDDE745B9012384F83E30B2
:10475000A5B9012384F84230002038BD042D05D0CE
:10476000082D07D0012384F84130F1E7012384F8B4
:104770003F30EDE7012384F84030E9E7042D05D010
:10478000082D07D0012384F84530E5E7012384F89C
:104790004330E1E7012384F84430DDE790F83C3012
:1047A000012B3DD010B4012380F83C30022380F867
:1047B0003D3003685A689C6822F0700C0A6842EA2F
:1047C0000C025A600368174A93421AD0B3F1804F23
:1047D00017D0A2F57C42934213D002F58062934237
:1047E0000FD002F5806293420BD002F578429342DB
:1047F00007D002F57052934203D0A2F5943293424F
:1048000004D124F080044A6814439C60012380F89A
:104810003D30002380F83C3018465DF8044B70476B
:1048200002207047000001407047704738B50446C9
:104830000268136923F44053C1680B431361836812
:104840000269134342691343C2691A430168CB6882
:1048500023F4164323F00C031343CB60026853691F
:1048600023F4407381690B4353610368314A9342D7
:1048700006D002F58062934202D0FEF7FBFC01E015
:10488000FEF708FDE369B3F5004F29D000210318B6
:1048900049411B1841F10001C90041EA5371DB0095
:1048A000181863684FEA83024FEA937341F10001DD
:1048B000FCF7CCF9204DA5FB00325109642303FB22
:1048C00011031B013233A5FB03235B0903F0F00244
:1048D00002EB011203F00F03216813448B6038BD13
:1048E0000023021843EB0301121841F10001C90033
:1048F00041EA5271D200101841F100016268921829
:104900005B41FCF7A3F90C4DA5FB00325109642370
:1049100003FB1103DB003233A5FB03235B095A00C1
:1049200002F4F87202EB011203F00703216813444A
:104930008B60D4E7001001401F85EB5158B310B5D0
:10494000044690F83D300BB3242384F83D302268B0
:10495000D36823F40053D3602046FFF767FF226833
:10496000136923F4904313612268536923F02A03E7
:1049700053612268D36843F40053D360002020645D
:10498000202384F83D3084F83E3010BD80F83C3060
:10499000FDF73AFED8E7012070470000054BD3F839
:1049A000882042F47002C3F888204FF000629A60B9
:1049B000704700BF00ED00E0DFF834D00D480E492D
:1049C0000E4A002302E0D458C4500433C4188C4269
:1049D000F9D30B4A0B4C002301E013600432A242CE
:1049E000FBD3FFF7DBFF00F011F8FDF74FFA70473C
:1049F000000002200000002070000020445D00083C
:104A00007000002008060020FEE7000070B50D4D84
:104A10000D4C641BA4100026A64209D10B4D0C4C72
:104A200001F062F8641BA4100026A64205D170BDF7
:104A300055F8043B98470136EEE755F8043B984794
:104A40000136F2E73C5D00083C5D00083C5D000873
:104A5000405D000802440346934200D1704703F8CA
:104A6000011BF9E70FB40A4B13B51C6824B1A36905
:104A700013B9204600F05EFA05AB049AA1680193D1
:104A8000204600F067FC02B0BDE8104004B070475B
:104A90000C00002070B50E46054618B183690BB9AD
:104AA00000F048FAAB69AC6813B9284600F042FA46
:104AB0002C4B9C4220D16C68636EDB0705D4A38924
:104AC000980502D4A06D00F0D3FAA38919071DD56B
:104AD0002369DBB1013EA36816F8011F013BA36007
:104AE00039BB002B38DA22460A21284600F048F864
:104AF000013011D00A2511E01B4B9C4201D1AC685A
:104B0000DAE71A4B9C4208BFEC68D5E721462846F5
:104B100000F088F80028DDD04FF0FF35636EDA072B
:104B200005D4A3899B0502D4A06D00F0A2FA284603
:104B300070BD002B04DAA2699A4206DC0A2904D06F
:104B400023685A1C22601970C5E72246284600F0E7
:104B500017F80130BFD1DFE723680A255A1C22600D
:104B60001D70DBE7C05C0008E05C0008A05C00088A
:104B7000024B01461868FFF78DBF00BF0C000020F4
:104B8000F8B50E461446054618B183690BB900F016
:104B9000D1F9214B9C422BD16C68A369A360A389F6
:104BA0001A072FD523696BB323692068C01A63697C
:104BB000F6B28342374604DC2146284600F026F947
:104BC00030BBA368013BA36023685A1C22601E709F
:104BD00063690130834204D0A389DB0706D50A2E1E
:104BE00004D12146284600F011F988B93846F8BDAD
:104BF0000A4B9C4201D1AC68CFE7094B9C4208BFED
:104C0000EC68CAE72146284600F00CF80028CBD013
:104C10004FF0FF37EAE700BFC05C0008E05C000827
:104C2000A05C0008324B70B51D6806460C4625B1E5
:104C3000AB6913B9284600F07DF92E4B9C420FD189
:104C40006C68A389B4F90C2019072CD4DD0611D4A3
:104C50000923336042F04003A3814FF0FF303EE070
:104C6000254B9C4201D1AC68EBE7244B9C4208BF2A
:104C7000EC68E6E7580712D5616B41B104F14403D3
:104C8000994202D0304600F05BFA00236363A389A7
:104C900023F02403A3810023636023692360A38995
:104CA00043F00803A38123694BB9A38903F420735C
:104CB000B3F5007F03D02146304600F001FAA08909
:104CC000B4F90C2010F001030AD00023A36063693B
:104CD0005B42A361236943B910F08000BAD170BD73
:104CE000810758BF6369A360F4E70020F7E700BFBE
:104CF0000C000020C05C0008E05C0008A05C00081C
:104D00008A892DE9F041054610070C4658D44B68B6
:104D1000002B05DC0B6C002B02DC0020BDE8F081D1
:104D2000E66A002EF9D0002312F480522F682B601F
:104D300032D0606DA3895A0705D56368C01A636BCA
:104D40000BB1236CC01A00230246E66A216A28468A
:104D5000B047431CA38906D129681D292CD82A4AAB
:104D6000CA40D60728D500226260D9042269226091
:104D700004D5421C01D12B6803B96065616B2F60BB
:104D80000029CAD004F14403994202D0284600F019
:104D9000D7F900206063C1E7216A01232846B047A4
:104DA000411CC7D12B68002BC4D01D2B01D0162B62
:104DB00001D12F60B1E7A38943F04003A381ADE7A0
:104DC0000F69002FA9D093070E6808BF4B690F60C9
:104DD00018BF0023A6EB07088B60B8F1000F9CDD1D
:104DE000216AA66A43463A462846B047002806DCB0
:104DF000A38943F04003A3814FF0FF308EE70744BF
:104E0000A8EB0008E9E700BF0100402038B50B69B6
:104E100005460C4613B90025284638BD18B18369EC
:104E20000BB900F087F8144B9C421BD16C68B4F9A5
:104E30000C30002BEFD0626ED00704D4990502D459
:104E4000A06D00F015F928462146FFF759FF636E63
:104E5000DA070546E0D4A3899B05DDD4A06D00F0F8
:104E600008F9D9E7054B9C4201D1AC68DFE7044B58
:104E70009C4208BFEC68DAE7C05C0008E05C000810
:104E8000A05C0008002310B50446C0E90033C0E967
:104E90000433836081814366C2818361194608229D
:104EA0005C30FFF7D7FD054B6362054BA362054BF2
:104EB000E362054B2462236310BD00BFFD58000868
:104EC0001F590008575900087B590008014900F094
:104ED000AFB800BF0D4E000870B568224D1E554397
:104EE0000E4605F1740100F097F9044640B1002127
:104EF000C0E900160C30A06005F16802FFF7AAFDBA
:104F0000204670BD014800F0B3B800BFF505002091
:104F1000014800F0AEB800BFF5050020014800F0E0
:104F2000A7B800BFF6050020014800F0A2B800BFF6
:104F3000F605002010B50446FFF7F0FFA3691BB18A
:104F4000BDE81040FFF7F0BFC4E912332365134BEF
:104F5000134A1B68A262A34204BF0123A361204637
:104F600000F020F86060204600F01CF8A0602046A9
:104F700000F018F80022E06004216068FFF782FF6B
:104F8000A06801220921FFF77DFFE06802221221BB
:104F9000FFF778FF0123A361D2E700BF9C5C000804
:104FA000CD4E0008F8B50746FFF7ACFF1E4B1E6854
:104FB000B36913B93046FFF7BDFF4836D6E901346F
:104FC000013B03D533680BB33668F7E7B4F90C50EF
:104FD000D5B9164BE36004F15800656600F047F858
:104FE000FFF796FFC4E90155C4E904552560A561A2
:104FF0000822294604F15C00FFF72CFDC4E90D5599
:10500000C4E912552046F8BD6834D9E70421384672
:10501000FFF762FF044630600028D5D1FFF778FF24
:105020000C233B60EEE700BF9C5C00080100FFFF23
:105030002DE9F8430646884600F148040027D4E9E4
:105040000195B9F1010905D52468002CF7D138463E
:10505000BDE8F883AB89012B07D9B5F90E300133D0
:1050600003D029463046C04707436835E9E7704713
:105070007047704770B50E46B1F90E10002996B012
:1050800014461D4608DAB6F90C3000222A601A06CA
:1050900010D44FF480630EE06A4600F095FC0028BF
:1050A000F1DB019A02F47042A2F500535A425A41D0
:1050B0002A60EEE740230020236016B070BD000098
:1050C0008B8973B59D0706460C4607D504F1470347
:1050D000236023610123636102B070BD01AB6A46A6
:1050E000FFF7C8FF00990546304600F095F848B92B
:1050F000B4F90C309A05EFD423F0030343F0020314
:10510000A381E3E70D4BB362A389206043F08003E2
:10511000A381009B6361019B20615BB1B4F90E1018
:10512000304600F063FC28B1A38923F0030343F069
:105130000103A381A0890543A581CDE7CD4E0008D9
:1051400037B5002944D051F8043C0190002BA1F15F
:105150000404B8BFE41800F06BFC1E4A0198136801
:1051600033B96360146003B0BDE8304000F066BC42
:10517000A34208D9256861198B4201BF19685B6891
:1051800049192160EDE71A465B680BB1A342FAD9D1
:1051900011685518A5420BD1246821445418A34224
:1051A0001160E0D11C685B68536021441160DAE74C
:1051B00002D90C230360D6E7256861198B4204BF2E
:1051C00019685B68636004BF491921605460CAE7CD
:1051D00003B030BDF805002070B50E4E0C463168A6
:1051E000054611B900F07AFB30602146284600F0F0
:1051F00075FB431C0AD0C41C24F00304A04207D052
:10520000211A284600F06AFB013001D14FF0FF342B
:10521000204670BDFC0500202DE9F041CD1C25F095
:10522000030508350C2D38BF0C25002D074601DB82
:10523000A94205D90C233B6000263046BDE8F08129
:105240002E4E00F0F5FB33681C4634BB2946384629
:10525000FFF7C2FF431C04464DD134682646002E9A
:1052600040D123683146384604EB030800F036FB92
:1052700080453AD1216803356D1A25F003050835BC
:105280000C2D38BF0C2529463846FFF7A5FF013005
:105290002BD023682B4423600EE02268521B1ED4BF
:1052A0000B2A16D96119A342256018BF596063689B
:1052B00008BF316062514B60384604F10B0600F0C4
:1052C000BDFB26F00706231DF21AB6D09B1BA35088
:1052D000B3E76268A3420CBF32605A60ECE7234632
:1052E0006468B2E734467668B9E70C233B60384619
:1052F00000F0A4FBA1E72560DEE700BFF805002071
:105300009368013B002B10B4936008DA9469A342C0
:1053100001DB0A2903D15DF8044BFFF731BC1368A8
:10532000581C1060197008465DF8044B7047F8B5BA
:1053300006460F461446D518AC4201D1002007E0BE
:1053400014F8011B3A463046FFF7DAFF431CF3D14D
:10535000F8BD00002DE9F04F0D469DB0144698466B
:10536000064618B183690BB9FFF7E4FD894B9D42EE
:105370001BD175686B6ED90705D4AB899A0502D429
:10538000A86DFFF775FEAB891B0701D52B69EBB93B
:1053900029463046FFF746FCC0B16B6EDC070ED5E0
:1053A0004FF0FF301DB0BDE8F08F7B4B9D4201D127
:1053B000B568DFE7794B9D4208BFF568DAE7AB894E
:1053C0009805EDD4A86DFFF754FEE9E70023099393
:1053D00020238DF82930CDF80C803023DFF8C081F0
:1053E0008DF82A304FF0010923469A4613F8012B15
:1053F0000AB1252AF9D1BAEB040B0BD05B46224641
:1054000029463046FFF793FF013000F0AA80099A41
:105410005A4409929AF80030002B00F0A280002331
:105420004FF0FF32CDE905230AF1010A04930793F7
:105430008DF853301A935446052214F8011B58482E
:10544000FAF7C6FE049AD8B9D10644BF20238DF8D6
:105450005330130744BF2B238DF853309AF8003094
:105460002A2B15D0079A544600204FF00A0C2146EB
:1054700011F8013B303B092B4ED9B0B1079214E033
:10548000A0EB080309FA03F313430493A246D2E7FF
:10549000039B191D1B680391002BBBBF5B4242F0AD
:1054A000020207930793B8BF049223782E2B0CD1E6
:1054B00063782A2B35D1039B1A1D1B680392002B9E
:1054C000B8BF4FF0FF3302340593DFF8E4A0217832
:1054D00003225046FAF77CFE40B14023A0EB0A00BD
:1054E00003FA00F0049B03430134049314F8011BF6
:1054F0002C488DF828100622FAF76AFE00283FD0C3
:10550000294B1BBB039B073323F00703083303938B
:10551000099B3B44099367E70CFB02320C460120D0
:10552000A5E700230134059319464FF00A0C2046E5
:1055300010F8012B303A092A03D9002BC5D0059168
:10554000C3E70CFB012104460123F0E703AB009302
:105550002A46164B04A93046AFF300800746781C54
:10556000D6D16B6ED90705D4AB899A0502D4A86D44
:10557000FFF77FFDAB895B063FF512AF099811E796
:1055800003AB00932A46094B04A9304600F080F88B
:10559000E4E700BFC05C0008E05C0008A05C000815
:1055A000005D00080A5D0008000000002F5300089D
:1055B000065D00082DE9F047164699468A680B6992
:1055C000DDF820809342B8BF1346336091F8432042
:1055D00007460C460AB1013333602368990642BF7F
:1055E000336802333360256815F0060506D104F1EF
:1055F000190AE36832689B1AAB4226DC94F8432010
:10560000131E226818BF012392062BD404F1430213
:1056100049463846C04701301ED02368E5683268E5
:1056200003F00603042B08BFAD1AA36822690CBF60
:1056300025EAE57500259342C4BF9B1AED180026A4
:105640001A34B5421AD1002008E0012352464946D7
:105650003846C047013003D14FF0FF30BDE8F08736
:105660000135C6E7E1185A1C302081F84300224476
:1056700094F8451082F843100233C7E7012322460D
:1056800049463846C0470130E6D00136D9E7000028
:105690002DE9FF470F7E0C9D782F914680460C46E2
:1056A0009A4601F1430207D8622F0AD8002F00F072
:1056B000D880582F00F0A38004F1420584F842708E
:1056C0003AE0A7F16303152BF6D801A151F823F0B6
:1056D000295700083D570008B9560008B956000878
:1056E000B9560008B95600083D570008B9560008D9
:1056F000B9560008B9560008B956000849580008BC
:105700006D5700082B580008B9560008B956000814
:105710006B580008B95600086D570008B9560008C4
:10572000B9560008335800082B681A1D1B682A60F8
:1057300004F1420584F842300123A3E0206829687F
:10574000060601F104030AD50E682B60002E03DA69
:105750002D23764284F843305E480A2319E00E6810
:105760002B6010F0400F18BF36B2EFE72B682068AF
:10577000191D2960010601D51E6802E04606FBD509
:105780001E8854486F2F0CBF08230A23002184F879
:1057900043106568A560002DA2BF216821F00401B7
:1057A00021600EB9002D4DD01546B6FBF3F103FB79
:1057B0001167C75D05F8017D3746BB420E46F4D937
:1057C000082B0BD12368DE0708D52369616899424D
:1057D000DEBF302305F8013C05F1FF35521B226185
:1057E000CDF800A04B4603AA21464046FFF7E2FE53
:1057F00001304CD14FF0FF3004B0BDE8F0873548A0
:1058000081F845702968236851F8046B29601D06EA
:1058100014D5DF0744BF43F0200323601EB923687B
:1058200023F0200323601023B0E7236843F0200314
:1058300023607823284884F84530E3E7590648BFB9
:10584000B6B2E6E71546BBE72B6826686169181D06
:10585000286035061B6801D5196002E07006FBD58B
:105860001980002323611546BAE72B681A1D2A60A8
:105870001D68626800212846FAF7AAFC08B1401B9F
:10588000606063682361002384F84330A8E72369DC
:105890002A4649464046D0470130ABD023689B0793
:1058A00013D4E068039B9842B8BF1846A4E70123CD
:1058B000324649464046D04701309BD00135E36827
:1058C00003995B1AAB42F2DCEBE7002504F1190601
:1058D000F5E700BF115D0008225D000838B5064DF0
:1058E0000023044608462B6000F0E8F8431C02D170
:1058F0002B6803B1236038BD0006002010B50C46AC
:10590000B1F90E1000F0A0F80028ABBF636DA389B9
:105910001B1823F48053ACBF6365A38110BD2DE930
:10592000F0411F468B89DB0505460C46164605D51A
:10593000B1F90E100223002200F068F8A389B4F92F
:105940000E1023F48053A38132463B462846BDE81F
:10595000F04100F017B810B50C46B1F90E1000F088
:1059600055F8431CA38915BF606523F4805343F4A5
:105970008053A38118BFA38110BDB1F90E1000F0B0
:1059800013B8000038B5074D0446084611460022FA
:105990002A601A4600F0A0F8431C02D12B6803B11C
:1059A000236038BD0006002038B5064D00230446AC
:1059B00008462B6000F05AF8431C02D12B6803B153
:1059C000236038BD0006002038B5074D002304468B
:1059D000084611462B6000F051F8431C02D12B6899
:1059E00003B1236038BD00BF0006002038B5064D66
:1059F0000023044608462B6000F048F8431C02D1FF
:105A00002B6803B1236038BD0006002038B5074D70
:105A100004460846114600222A601A4600F03EF865
:105A2000431C02D12B6803B1236038BD000600205F
:105A30000148FFF71DBB00BFF40500200148FFF738
:105A400018BB00BFF405002038B5074D04460846D2
:105A5000114600222A601A4600F028F8431C02D1A1
:105A60002B6803B1236038BD00060020024B58228A
:105A70001A604FF0FF30704700060020024B58229A
:105A80001A604FF0FF30704700060020024B58228A
:105A90001A600020704700BF00060020024B582209
:105AA0001A604FF0FF30704700060020024B58226A
:105AB0001A604FF0FF30704700060020044A054985
:105AC0001368002B08BF0B46184410601846704737
:105AD0000406002008060020024B58221A604FF0EE
